{
  "_format": "hh-sol-artifact-1",
  "contractName": "BallotFee",
  "sourceName": "contracts/Ballot-fee.sol",
  "abi": [
    {
      "inputs": [
        {
          "internalType": "address",
          "name": "tokenAddress",
          "type": "address"
        }
      ],
      "stateMutability": "nonpayable",
      "type": "constructor"
    },
    {
      "anonymous": false,
      "inputs": [
        {
          "indexed": false,
          "internalType": "string",
          "name": "name",
          "type": "string"
        }
      ],
      "name": "NewProposal",
      "type": "event"
    },
    {
      "anonymous": false,
      "inputs": [
        {
          "indexed": false,
          "internalType": "address",
          "name": "voter",
          "type": "address"
        }
      ],
      "name": "votedNo",
      "type": "event"
    },
    {
      "anonymous": false,
      "inputs": [
        {
          "indexed": false,
          "internalType": "address",
          "name": "voter",
          "type": "address"
        }
      ],
      "name": "votedYes",
      "type": "event"
    },
    {
      "inputs": [],
      "name": "DAOOwner",
      "outputs": [
        {
          "internalType": "address",
          "name": "",
          "type": "address"
        }
      ],
      "stateMutability": "view",
      "type": "function"
    },
    {
      "inputs": [
        {
          "internalType": "uint256",
          "name": "intAmt",
          "type": "uint256"
        }
      ],
      "name": "approve",
      "outputs": [],
      "stateMutability": "nonpayable",
      "type": "function"
    },
    {
      "inputs": [],
      "name": "getNoCount",
      "outputs": [
        {
          "internalType": "uint256",
          "name": "",
          "type": "uint256"
        }
      ],
      "stateMutability": "view",
      "type": "function"
    },
    {
      "inputs": [],
      "name": "getYesCount",
      "outputs": [
        {
          "internalType": "uint256",
          "name": "",
          "type": "uint256"
        }
      ],
      "stateMutability": "view",
      "type": "function"
    },
    {
      "inputs": [],
      "name": "proposal",
      "outputs": [
        {
          "internalType": "string",
          "name": "",
          "type": "string"
        }
      ],
      "stateMutability": "view",
      "type": "function"
    },
    {
      "inputs": [
        {
          "internalType": "string",
          "name": "_proposal",
          "type": "string"
        }
      ],
      "name": "setProposal",
      "outputs": [],
      "stateMutability": "nonpayable",
      "type": "function"
    },
    {
      "inputs": [],
      "name": "voteNo",
      "outputs": [],
      "stateMutability": "nonpayable",
      "type": "function"
    },
    {
      "inputs": [],
      "name": "voteYes",
      "outputs": [],
      "stateMutability": "nonpayable",
      "type": "function"
    },
    {
      "inputs": [],
      "name": "withdrawMoney",
      "outputs": [],
      "stateMutability": "nonpayable",
      "type": "function"
    }
  ],
  "bytecode": "0x608060405260008055600060015534801561001957600080fd5b50604051610e37380380610e37833981810160405281019061003b91906100d8565b33600260006101000a81548173ffffffffffffffffffffffffffffffffffffffff021916908373ffffffffffffffffffffffffffffffffffffffff16021790555080600360006101000a81548173ffffffffffffffffffffffffffffffffffffffff021916908373ffffffffffffffffffffffffffffffffffffffff1602179055505061014a565b6000815190506100d281610133565b92915050565b6000602082840312156100ea57600080fd5b60006100f8848285016100c3565b91505092915050565b600061010c82610113565b9050919050565b600073ffffffffffffffffffffffffffffffffffffffff82169050919050565b61013c81610101565b811461014757600080fd5b50565b610cde806101596000396000f3fe608060405234801561001057600080fd5b50600436106100935760003560e01c8063753ec10311610066578063753ec103146100fa57806390cf581c14610118578063ac44600214610122578063b759f9541461012c578063dbfb1f8a1461014857610093565b80633722b0de1461009857806341c12a70146100b657806372204713146100c0578063745fd751146100de575b600080fd5b6100a0610166565b6040516100ad9190610a2d565b60405180910390f35b6100be610170565b005b6100c861027b565b6040516100d59190610990565b60405180910390f35b6100f860048036038101906100f39190610897565b6102a1565b005b61010261034c565b60405161010f9190610a0b565b60405180910390f35b6101206103da565b005b61012a6104e4565b005b610146600480360381019061014191906108d8565b610668565b005b61015061071b565b60405161015d9190610a2d565b60405180910390f35b6000600154905090565b600360009054906101000a900473ffffffffffffffffffffffffffffffffffffffff1673ffffffffffffffffffffffffffffffffffffffff166323b872dd3330678ac7230489e800006040518463ffffffff1660e01b81526004016101d7939291906109ab565b602060405180830381600087803b1580156101f157600080fd5b505af1158015610205573d6000803e3d6000fd5b505050506040513d601f19601f82011682018060405250810190610229919061086e565b506001600081548092919061023d90610b93565b91905055507f5351a3c86fd85f065604ddd559e2f496503c6e4d5e1aae7d7a4c8fde1874414c336040516102719190610990565b60405180910390a1565b600260009054906101000a900473ffffffffffffffffffffffffffffffffffffffff1681565b600260009054906101000a900473ffffffffffffffffffffffffffffffffffffffff1673ffffffffffffffffffffffffffffffffffffffff163373ffffffffffffffffffffffffffffffffffffffff16146102fb57600080fd5b8060049080519060200190610311929190610724565b507f86d8e0967ea6ac45a69b8f37bf082848c2027d16f550f0a91dda28e6309fedb1816040516103419190610a0b565b60405180910390a150565b6004805461035990610b61565b80601f016020809104026020016040519081016040528092919081815260200182805461038590610b61565b80156103d25780601f106103a7576101008083540402835291602001916103d2565b820191906000526020600020905b8154815290600101906020018083116103b557829003601f168201915b505050505081565b600360009054906101000a900473ffffffffffffffffffffffffffffffffffffffff1673ffffffffffffffffffffffffffffffffffffffff166323b872dd3330678ac7230489e800006040518463ffffffff1660e01b8152600401610441939291906109ab565b602060405180830381600087803b15801561045b57600080fd5b505af115801561046f573d6000803e3d6000fd5b505050506040513d601f19601f82011682018060405250810190610493919061086e565b506000808154809291906104a690610b93565b91905055507f655b737f1eeecd069d10fb0ed2023988247f3bab1e679b4276a968982668e5b3336040516104da9190610990565b60405180910390a1565b6000600360009054906101000a900473ffffffffffffffffffffffffffffffffffffffff1673ffffffffffffffffffffffffffffffffffffffff166370a08231306040518263ffffffff1660e01b81526004016105419190610990565b60206040518083038186803b15801561055957600080fd5b505afa15801561056d573d6000803e3d6000fd5b505050506040513d601f19601f820116820180604052508101906105919190610901565b9050600360009054906101000a900473ffffffffffffffffffffffffffffffffffffffff1673ffffffffffffffffffffffffffffffffffffffff1663a9059cbb600260009054906101000a900473ffffffffffffffffffffffffffffffffffffffff16836040518363ffffffff1660e01b81526004016106129291906109e2565b602060405180830381600087803b15801561062c57600080fd5b505af1158015610640573d6000803e3d6000fd5b505050506040513d601f19601f82011682018060405250810190610664919061086e565b5050565b600360009054906101000a900473ffffffffffffffffffffffffffffffffffffffff1673ffffffffffffffffffffffffffffffffffffffff1663095ea7b330836040518363ffffffff1660e01b81526004016106c59291906109e2565b602060405180830381600087803b1580156106df57600080fd5b505af11580156106f3573d6000803e3d6000fd5b505050506040513d601f19601f82011682018060405250810190610717919061086e565b5050565b60008054905090565b82805461073090610b61565b90600052602060002090601f0160209004810192826107525760008555610799565b82601f1061076b57805160ff1916838001178555610799565b82800160010185558215610799579182015b8281111561079857825182559160200191906001019061077d565b5b5090506107a691906107aa565b5090565b5b808211156107c35760008160009055506001016107ab565b5090565b60006107da6107d584610a79565b610a48565b9050828152602081018484840111156107f257600080fd5b6107fd848285610b1f565b509392505050565b60008151905061081481610c7a565b92915050565b600082601f83011261082b57600080fd5b813561083b8482602086016107c7565b91505092915050565b60008135905061085381610c91565b92915050565b60008151905061086881610c91565b92915050565b60006020828403121561088057600080fd5b600061088e84828501610805565b91505092915050565b6000602082840312156108a957600080fd5b600082013567ffffffffffffffff8111156108c357600080fd5b6108cf8482850161081a565b91505092915050565b6000602082840312156108ea57600080fd5b60006108f884828501610844565b91505092915050565b60006020828403121561091357600080fd5b600061092184828501610859565b91505092915050565b61093381610ac5565b82525050565b61094281610b0d565b82525050565b600061095382610aa9565b61095d8185610ab4565b935061096d818560208601610b2e565b61097681610c69565b840191505092915050565b61098a81610b03565b82525050565b60006020820190506109a5600083018461092a565b92915050565b60006060820190506109c0600083018661092a565b6109cd602083018561092a565b6109da6040830184610939565b949350505050565b60006040820190506109f7600083018561092a565b610a046020830184610981565b9392505050565b60006020820190508181036000830152610a258184610948565b905092915050565b6000602082019050610a426000830184610981565b92915050565b6000604051905081810181811067ffffffffffffffff82111715610a6f57610a6e610c3a565b5b8060405250919050565b600067ffffffffffffffff821115610a9457610a93610c3a565b5b601f19601f8301169050602081019050919050565b600081519050919050565b600082825260208201905092915050565b6000610ad082610ae3565b9050919050565b60008115159050919050565b600073ffffffffffffffffffffffffffffffffffffffff82169050919050565b6000819050919050565b6000610b1882610b03565b9050919050565b82818337600083830152505050565b60005b83811015610b4c578082015181840152602081019050610b31565b83811115610b5b576000848401525b50505050565b60006002820490506001821680610b7957607f821691505b60208210811415610b8d57610b8c610c0b565b5b50919050565b6000610b9e82610b03565b91507fffffffffffffffffffffffffffffffffffffffffffffffffffffffffffffffff821415610bd157610bd0610bdc565b5b600182019050919050565b7f4e487b7100000000000000000000000000000000000000000000000000000000600052601160045260246000fd5b7f4e487b7100000000000000000000000000000000000000000000000000000000600052602260045260246000fd5b7f4e487b7100000000000000000000000000000000000000000000000000000000600052604160045260246000fd5b6000601f19601f8301169050919050565b610c8381610ad7565b8114610c8e57600080fd5b50565b610c9a81610b03565b8114610ca557600080fd5b5056fea26469706673582212207fef33f41acdc6c12cee8907be2d24b2d7cee64926fa8341850c2c0b9c2ec88b64736f6c63430008000033",
  "linkReferences": {},
  "deployedLinkReferences": {}
}